:02000000801767
:0400030012006F3246
:10000B00C28C12022D758C3C758AB0D28C327581E4
:10001B003075900075A000C207D2A4C203C202C201
:10002B0001C200C20D75B00F752E00752F001203A3
:10003B00E7752F02752EE0120384F52454BFF52EBD
:10004B001203E712022D758C3C758AB07530007562
:10005B008911C28DD28875A883D28C000000004311
:10006B00870180F7A2D39208A2D49209C2D3C2D43B
:10007B00758D15758BA0D28E308FFDC28FC28E20E1
:10008B00B21B20A5111202001201A01200DE1202F7
:10009B00BB12022D8007C2A5D20D753000A20892AB
:1000AB00D3A20992D422200716801330A511A830B1
:1000BB00B8A00405308007C2A5753000D20D22E52B
:1000CB0024B5290CE525B52A07200D06D2A58002FB
:1000DB00C20D22A203720272017200507E20827B3B
:1000EB0030034B20B54630B3047824800930B40478
:1000FB00782680027829E612018030011820B3039C
:10010B0030B605B40522801D30B405B4011A801534
:10011B00B40915801030B602800330B305B4020861
:10012B008003B40303E4800104120187802D3002A5
:10013B002320B51E30B3047824800930B40478260C
:10014B0080027829E6120184B40903E480010412C9
:10015B0001948007800620019D80E92230B304784A
:10016B002580F330B404782780EC30B604782A80ED
:10017B00E5782880E1C4540F22540F22862B532B91
:10018B000FA62BC454F046F622862B532BF0A62B2E
:10019B00540F46F62220815C300306C203D2028044
:1001AB0053300206C202D201804A300106C201D28C
:1001BB00008041300025C20020B30820B40920B5CF
:1001CB000A800CC206802DC2058029C2048025300E
:1001DB000009C20030B61DD2078019D203300704C4
:1001EB00C207801020B30B20B404D2048006D205C2
:1001FB008002D2062220802953208030B306C2B35E
:10020B00D2B4801D30B408D2B5C2A4C2B4801230AF
:10021B00B508D2B6C2B5D2A48007200702C2B6D2A7
:10022B00B322300E0122D20EA2D3920AA2D4920B89
:10023B00D2D3C2D411B120060F30063520051830A9
:10024B00054320042130045185252E752F017E0294
:10025B00AF2412035E80E585262E752F047E05AF35
:10026B002712035E80DC752F0685282E1203E7808C
:10027B0031752F01752E25120384752F02752E24CF
:10028B0012038480B7752F04752E26120384752FE5
:10029B0005752E2712038480A9752F06752E28123B
:1002AB0003841202BBA20A92D3A20B92D4C20E22D7
:1002BB00752B0420B30E20B41320B51820B61D8562
:1002CB00292C801E85242C85252D801685262C8592
:1002DB00272D800E752C2085282D800685292C85B1
:1002EB002A2DE520A82B13D8FD920C152BA82BB883
:1002FB000103852D2CE52CC475230F5223F52C906F
:10030B000482E52B93900460F893FA08E893FB08BA
:10031B00E893FC08E893FD08E893FE08E893FF9048
:10032B000478E52393300C024401780813F9E59027
:10033B0040035D80014CF5904AF5905BF590E9D850
:10034B00EBE5A04EF5A05FF5A0052BD52B028002A7
:10035B0041ED221203E78E2F8F2E1203E72240046A
:10036B0074D0800274D1780812041F334005120434
:10037B0039800312042ED8F322C2D77169120442BA
:10038B0030B0028034E52F780833400512043980F1
:10039B000312042ED8F312044220B01D120452D2C1
:1003AB00D7716912044230B002800E78081203D85C
:1003BB0033D8FAA82EF61203C522D2B112041DD2DD
:1003CB00B012041DC2B012041D12045222D2B1D2BB
:1003DB00B012041DA2B1C2B012041D22C2D77169A2
:1003EB0012044230B00280297802742D28F8E67985
:1003FB0008334005120439800312042ED9F312047A
:10040B004230B002800BC3E8782D98F8D8DC120488
:10041B0052220022C2B0D2B1D2B0911DC2B1911DF5
:10042B00C2B022D2B1D2B0911DC2B0C2B122C2B100
:10043B00D2B0911DC2B022D2B1D2B0911D20B10366
:10044B00C2B02212045222C2B0C2B100D2B0911D6E
:10045B00D2B1911D2201FE02FD01FE04FB08F70241
:10046B007D10EF20DF04FB40BF807F08F7FC60DAD4
:0B047B00F266B6BEE0FEF6120C0600B2
:00000001FF
